:100000000C9462000C948A000C948A000C948A0070
:100010000C948A000C948A000C948A000C948A0038
:100020000C948A000C948A000C948A000C94EA03C5
:100030000C948A000C948A000C948A000C948A0018
:100040000C94A0030C948A000C946E030C94480347
:100050000C948A000C948A000C948A000C948A00F8
:100060000C948A000C948A000000000024002700F1
:100070002A0000000000250028002B0000000000DE
:1000800023002600290004040404040404040202DA
:100090000202020203030303030301020408102007
:1000A0004080010204081020010204081020000012
:1000B0000008000201000003040700000000000027
:1000C0000000AB0411241FBECFEFD8E0DEBFCDBFD0
:1000D00011E0A0E0B1E0EEEBFEE002C005900D9271
:1000E000AA32B107D9F721E0AAE2B1E001C01D921E
:1000F000AD3FB207E1F710E0C2E6D0E004C02197BF
:10010000FE010E945207C136D107C9F70E940905B6
:100110000C945D070C940000CF92DF92EF92FF9257
:10012000DC01A03282E0B8070CF03EC0B7FD06C08B
:10013000A53BB1052CF0A4EBB0E002C0A0E0B0E01C
:100140008091FB0128E830E06901C81AD10887FDD9
:10015000D394CC0CDD1CCC0CDD1C0D2C000CEE085B
:10016000FF088091FC0128E532E0281B310987FD5A
:100170003395220F331F220F331FA901330F660B54
:10018000770B9A01AB012C193D094E095F090E94BA
:100190000D0724EB30E040E050E00E94E306C20E81
:1001A000D31EE41EF51ED6019091FA019C3098F5FD
:1001B0008091FB0148E850E0481B510987FD5395A9
:1001C000440F551F440F551FA417B5078CF080919D
:1001D000FC0128E532E0281B310987FD3395220F09
:1001E000331F220F331FAD012A173B070CF4A9015F
:1001F00042505109440F551F2FB7F894892F90E0B2
:10020000FC01EE0FFF1F8E0F9F1FFC01EB52FE4FF4
:10021000528341832FBFFF90EF90DF90CF900895DE
:10022000CF92DF92EF92FF920F931F93CF93DF93C2
:100230006C017A018B01C0E0D0E0CE15DF0589F0BA
:10024000D8016D918D01D601ED91FC910190F08165
:10025000E02DC6010995892B11F47E0102C021967B
:10026000ECCFC701DF91CF911F910F91FF90EF90DD
:10027000DF90CF900895089580E090E00895FC010C
:10028000538D448D252F30E0842F90E0821B930BFB
:10029000541710F0CF96089501970895FC01918DA1
:1002A000828D981761F0828DDF01A80FB11D5D96D8
:1002B0008C91928D9F5F9F73928F90E008958FEF46
:1002C0009FEF0895FC01918D828D981731F0828DFA
:1002D000E80FF11D858D90E008958FEF9FEF089551
:1002E000FC01918D228D892F90E0805C9F4F821BB5
:1002F00091098F739927089588E391E00E94700116
:1003000021E0892B09F420E0822F0895FC01848DDF
:10031000DF01A80FB11DA35ABF4F2C91848D90E02F
:1003200001968F739927848FA689B7892C93A0890A
:10033000B1898C9180648C93938D848D981306C0C1
:100340000288F389E02D80818F7D80830895EF926C
:10035000FF920F931F93CF93DF93EC0181E0888F7F
:100360009B8D8C8D981305C0E889F989808185FD66
:1003700024C0F62E0B8D10E00F5F1F4F0F73112757
:10038000E02E8C8DE8120CC00FB607FCFACFE8897E
:10039000F989808185FFF5CFCE010E948601F1CFDA
:1003A0008B8DFE01E80FF11DE35AFF4FF0820B8F9A
:1003B000EA89FB898081806207C0EE89FF896083BA
:1003C000E889F98980818064808381E090E0DF9111
:1003D000CF911F910F91FF90EF900895CF93DF93EE
:1003E000EC01888D8823C9F0EA89FB89808185FD2D
:1003F00005C0A889B9898C9186FD0FC00FB607FC8E
:10040000F5CF808185FFF2CFA889B9898C9185FFCE
:10041000EDCFCE010E948601E7CFDF91CF91089505
:1004200080E090E0892B29F00E947C0181110C94DE
:1004300000000895833081F028F4813099F08230F3
:10044000A1F008958730A9F08830B9F08430D1F454
:10045000809180008F7D03C0809180008F77809392
:100460008000089584B58F7702C084B58F7D84BDE8
:1004700008958091B0008F7703C08091B0008F7D88
:100480008093B0000895CF93DF93282F30E0F901D7
:10049000E255FF4F8491F901E656FF4FD491F901DF
:1004A000EA57FF4FC491CC2391F081110E941A02A8
:1004B000EC2FF0E0EE0FFF1FE458FF4FA591B49131
:1004C000EC91ED2381E090E021F480E002C080E037
:1004D00090E0DF91CF9108951F93CF93DF93282F62
:1004E00030E0F901E255FF4F8491F901E656FF4FE4
:1004F000D491F901EA57FF4FC491CC23C9F0162FCC
:1005000081110E941A02EC2FF0E0EE0FFF1FEE584F
:10051000FF4FA591B4918FB7F894111105C09C912C
:10052000ED2FE095E92302C0EC91ED2BEC938FBF0A
:10053000DF91CF911F910895CF93DF9390E0FC015D
:10054000E656FF4F2491FC01EA57FF4F8491882320
:1005500061F190E0880F991FFC01E859FF4FC591A8
:10056000D491FC01EE58FF4FA591B491611109C0DF
:100570009FB7F8948881209582238883EC912E235D
:100580000BC0623061F49FB7F8943881822F809558
:1005900083238883EC912E2B2C939FBF06C08FB7AB
:1005A000F894E8812E2B28838FBFDF91CF91089597
:1005B0003FB7F89480912C0190912D01A0912E01CC
:1005C000B0912F0126B5A89B05C02F3F19F00196C9
:1005D000A11DB11D3FBFBA2FA92F982F8827820FC9
:1005E000911DA11DB11DBC01CD0142E0660F771F19
:1005F000881F991F4A95D1F708958F929F92AF92C5
:10060000BF92CF92DF92EF92FF920E94D8024B01ED
:100610005C018FE0C82ED12CE12CF12C0E94D80275
:10062000DC01CB0188199909AA09BB09883E9340CE
:10063000A105B10558F021E0C21AD108E108F1087E
:1006400088EE880E83E0981EA11CB11CC114D10451
:10065000E104F10419F7FF90EF90DF90CF90BF9085
:10066000AF909F908F900895009769F0FC010190E2
:100670000020E9F73197AF01481B590BBC0188E313
:1006800091E00C94100180E090E008950E945807DA
:100690001F920F920FB60F9211242F933F934F93F7
:1006A0005F936F937F938F939F93AF93BF93EF93DA
:1006B000FF9388E391E00E948601FF91EF91BF9143
:1006C000AF919F918F917F916F915F914F913F91EA
:1006D0002F910F900FBE0F901F9018951F920F92A1
:1006E0000FB60F9211242F938F939F93EF93FF9345
:1006F000E0914801F09149018081E0914E01F09133
:100700004F0182FD12C09081809151018F5F8F73E4
:1007100020915201821751F0E0915101F0E0E85C24
:10072000FE4F958F8093510101C08081FF91EF9121
:100730009F918F912F910F900FBE0F901F90189542
:100740001F920F920FB60F9211242F933F938F9306
:100750009F93AF93BF938091300190913101A0910D
:100760003201B091330130912B0123E0230F2D375B
:1007700020F40196A11DB11D05C026E8230F0296A5
:10078000A11DB11D20932B01809330019093310165
:10079000A0933201B093330180912C0190912D01EF
:1007A000A0912E01B0912F010196A11DB11D809342
:1007B0002C0190932D01A0932E01B0932F01BF9196
:1007C000AF919F918F913F912F910F900FBE0F90FE
:1007D0001F9018951F920F920FB60F9211242F930E
:1007E0003F934F935F936F937F938F939F93AF93B9
:1007F000BF93EF93FF9380912A0187FF05C010926A
:100800008500109284001BC020912A01022E000C4A
:10081000330B8091F90190E02817390784F4809117
:100820002A01082E000C990BFC01EE0FFF1F8E0F02
:100830009F1FFC01EB52FE4F808186FD15C0809109
:100840002A018F5F80932A0120912A01022E000C39
:10085000330B8091F90190E028173907C4F4809197
:100860002A018C3064F113C080912A01082E000CFB
:10087000990BFC01EE0FFF1F8E0F9F1FFC01EB5227
:10088000FE4F808160E08F730E946C02D8CF809110
:10089000840090918500049680349C4918F480E48B
:1008A0009CE905C080918400909185000496909306
:1008B0008900809388008FEF80932A013BC02091AC
:1008C00084003091850080912A01082E000C990B3C
:1008D000FC01EE0FFF1F8E0F9F1FFC01EB52FE4F1E
:1008E00081819281820F931F909389008093880069
:1008F00080912A01082E000C990BFC01EE0FFF1FBE
:100900008E0F9F1FFC01EB52FE4F808186FF12C0AD
:1009100080912A01082E000C990BFC01EE0FFF1F9D
:100920008E0F9F1FFC01EB52FE4F808161E08F73A1
:100930000E946C02FF91EF91BF91AF919F918F91B7
:100940007F916F915F914F913F912F910F900FBECB
:100950000F901F90189510923B0110923A0188EE6B
:1009600093E0A0E0B0E080933C0190933D01A09320
:100970003E01B0933F0182E191E090933901809371
:10098000380185EC90E0909345018093440184EC1C
:1009900090E0909347018093460180EC90E0909323
:1009A00049018093480181EC90E090934B01809342
:1009B0004A0182EC90E090934D0180934C0186ECCB
:1009C00090E090934F0180934E011092510110924C
:1009D000520110925301109254018091F9018C3010
:1009E000A0F491E0980F9093F9018093FA0190E0C0
:1009F000FC01EE0FFF1F8E0F9F1FFC01EB52FE4FFD
:100A000088EB9BE09283818308958FEF8093FA01B6
:100A10000895CF93DF93CDB7DEB7A1970FB6F894C3
:100A2000DEBF0FBECDBF789484B5826084BD84B52F
:100A3000816084BD85B5826085BD85B5816085BDD9
:100A400080916E00816080936E0010928100809191
:100A50008100826080938100809181008160809319
:100A60008100809180008160809380008091B1003E
:100A700084608093B1008091B00081608093B00069
:100A800080917A00846080937A0080917A008260FD
:100A900080937A0080917A00816080937A008091BF
:100AA0007A00806880937A001092C100E09148013A
:100AB000F091490182E08083E0914401F091450189
:100AC0001082E0914601F09147018FEC80831092F3
:100AD0005001E0914C01F0914D0186E08083E0915E
:100AE0004A01F0914B01808180618083E0914A014D
:100AF000F0914B01808188608083E0914A01F09100
:100B00004B01808180688083E0914A01F0914B0124
:100B100080818F7D80838091FA018C3008F051C0F4
:100B200061E089E00E949C028091FA01E82FF0E0E8
:100B30009F01220F331FE20FF31FEB52FE4F9081F4
:100B4000907C996090831092FB011092FC016CE004
:100B50000E9446079CE0899FB001112440E050E0CC
:100B60009A01260F371FF901EE0FFF1F2E0F3F1FAF
:100B7000F901EB52FE4F908196FD16C04F5F5F4F1B
:100B80004C30510569F781110FC01092800082E04E
:100B9000809381001092850010928400B19A809118
:100BA0006F00826080936F00E091FA01F0E0CF0166
:100BB000880F991FE80FF91FEB52FE4F8081806468
:100BC000808360E087E00E949C0260E084E00E94F5
:100BD0009C0288E290E00E948C008AE0882E912C92
:100BE000A12CB12C87E00E9443028C0190930D014F
:100BF00080930C0184E00E94430290930B01809348
:100C00000A0120910801309109010217130739F4F4
:100C100020910601309107018217930799F02FB7B1
:100C2000F8948091300190913101A0913201B091FE
:100C300033012FBF8093340190933501A093360187
:100C4000B09337012FB7F894809130019091310122
:100C5000A0913201B09133012FBF409134015091E6
:100C600035016091360170913701841B950BA60BFD
:100C7000B70BC397A105B10508F442C080910C01E0
:100C800090910D0120910401309105018217930785
:100C9000B1F09093050180930401892B81F4809138
:100CA000020190910301843B91054CF4449690938A
:100CB0000301809302010E948C000E94FD0280913A
:100CC0000A0190910B0120910001309101018217DE
:100CD0009307B1F09093010180930001892B81F477
:100CE0008091020190910301893291054CF0449763
:100CF00090930301809302010E948C000E94FD02E8
:100D000080E291E00E943403C0900201D090030180
:100D10000D2C000CEE08FF08F7FE26C0E09138010C
:100D2000F09139010190F081E02D6DE288E391E0CE
:100D3000099522273327A9012C193D094E095F097E
:100D400019A28E010F5D1F4FCA01B901A5019401BF
:100D50000E941507605DF80162938F01211531052E
:100D60004105510589F715C0A701960119A28E0109
:100D70000F5D1F4FCA01B901A50194010E9415071B
:100D8000605DF80162938F01211531054105510520
:100D900089F7C8010E94340386E291E00E9434037F
:100DA00080910C0190910D019093090180930801AD
:100DB00080910A0190910B019093070180930601A5
:100DC0000E9410020FCF052E97FB1EF400940E9484
:100DD000FA0657FD07D00E94150707FC03D04EF412
:100DE0000C94FA0650954095309521953F4F4F4F02
:100DF0005F4F089590958095709561957F4F8F4FC7
:100E00009F4F08950E943707A59F900DB49F900DA6
:100E1000A49F800D911D11240895B7FF0C94020723
:100E20000E940207821B930B0895A1E21A2EAA1BAF
:100E3000BB1BFD010DC0AA1FBB1FEE1FFF1FA2178A
:100E4000B307E407F50720F0A21BB30BE40BF50B87
:100E5000661F771F881F991F1A9469F76095709510
:100E6000809590959B01AC01BD01CF010895A29F93
:100E7000B001B39FC001A39F700D811D1124911D6E
:100E8000B29F700D811D1124911D0895991B79E069
:100E900004C0991F961708F0961B881F7A95C9F70A
:100EA00080950895EE0FFF1F0590F491E02D0994B1
:0E0EB00081E090E0F8940C945D07F894FFCF79
:100EBE0001002800010001000100010001000000F6
:100ECE000000A70110013F01EE0170014E01620109
:0A0EDE00706F733A20000D0A000047
:107E0000112484B714BE81FFF0D085E080938100F7
:107E100082E08093C00088E18093C10086E0809377
:107E2000C20080E18093C4008EE0C9D0259A86E02C
:107E300020E33CEF91E0309385002093840096BBD3
:107E4000B09BFECF1D9AA8958150A9F7CC24DD24C4
:107E500088248394B5E0AB2EA1E19A2EF3E0BF2EE7
:107E6000A2D0813461F49FD0082FAFD0023811F036
:107E7000013811F484E001C083E08DD089C08234E0
:107E800011F484E103C0853419F485E0A6D080C0E4
:107E9000853579F488D0E82EFF2485D0082F10E0AE
:107EA000102F00270E291F29000F111F8ED06801E7
:107EB0006FC0863521F484E090D080E0DECF843638
:107EC00009F040C070D06FD0082F6DD080E0C81688
:107ED00080E7D80618F4F601B7BEE895C0E0D1E017
:107EE00062D089930C17E1F7F0E0CF16F0E7DF06D8
:107EF00018F0F601B7BEE89568D007B600FCFDCFD4
:107F0000A601A0E0B1E02C9130E011968C91119780
:107F100090E0982F8827822B932B1296FA010C0160
:107F200087BEE89511244E5F5F4FF1E0A038BF0790
:107F300051F7F601A7BEE89507B600FCFDCF97BE46
:107F4000E89526C08437B1F42ED02DD0F82E2BD052
:107F50003CD0F601EF2C8F010F5F1F4F84911BD097
:107F6000EA94F801C1F70894C11CD11CFA94CF0C13
:107F7000D11C0EC0853739F428D08EE10CD085E9AC
:107F80000AD08FE07ACF813511F488E018D01DD067
:107F900080E101D065CF982F8091C00085FFFCCF94
:107FA0009093C60008958091C00087FFFCCF809118
:107FB000C00084FD01C0A8958091C6000895E0E648
:107FC000F0E098E1908380830895EDDF803219F02E
:107FD00088E0F5DFFFCF84E1DECF1F93182FE3DFCA
:107FE0001150E9F7F2DF1F91089580E0E8DFEE27F6
:047FF000FF270994CA
:027FFE00040479
:0400000300007E007B
:00000001FF
