:100000000C945D000C9485000C9485000C94850084
:100010000C9485000C9485000C9485000C9485004C
:100020000C9485000C9485000C9485000C94CB03F3
:100030000C9485000C9485000C9485000C9485002C
:100040000C9481030C9485000C944F030C942903A9
:100050000C9485000C9485000C9485000C9485000C
:100060000C9485000C94850000000008000201003B
:100070000003040700000000000000000000000072
:10008000250028002B0000000000240027002A0083
:10009000040404040404040402020202020203032E
:1000A0000303030301020408102040800102040836
:1000B00010200102040810208C0411241FBECFEF71
:1000C000D8E0DEBFCDBF11E0A0E0B1E0EEE9F5E1A0
:1000D00002C005900D92A03AB107D9F722E0A0EA3C
:1000E000B1E001C01D92A737B207E1F710E0CDE5FE
:1000F000D0E004C02197FE010E94BB08CC35D10797
:10010000C9F70E94EA040C94CD0A0C940000CF9227
:10011000DF92EF92FF92DC01A03282E0B8070CF090
:100120003EC0B7FD06C0A53BB1052CF0A4EBB0E086
:1001300002C0A0E0B0E08091710228E830E06901DF
:10014000C81AD10887FDD394CC0CDD1CCC0CDD1C67
:100150000D2C000CEE08FF088091720228E532E0B9
:10016000281B310987FD3395220F331F220F331FC0
:10017000A901330F660B770B9A01AB012C193D09CE
:100180004E095F090E94100824EB30E040E050E087
:100190000E94E607C20ED31EE41EF51ED601909102
:1001A00070029C3098F58091710248E850E0481B3D
:1001B000510987FD5395440F551F440F551FA41730
:1001C000B5078CF08091720228E532E0281B3109D6
:1001D00087FD3395220F331F220F331FAD012A17DE
:1001E0003B070CF4A90142505109440F551F2FB78A
:1001F000F894892F90E0FC01EE0FFF1F8E0F9F1FD8
:10020000FC01E55BFD4F528341832FBFFF90EF90D0
:10021000DF90CF900895CF92DF92EF92FF920F93ED
:100220001F93CF93DF936C017A018B01C0E0D0E084
:10023000CE15DF0589F0D8016D918D01D601ED91C4
:10024000FC910190F081E02DC6010995892B11F4F4
:100250007E0102C02196ECCFC701DF91CF911F91A3
:100260000F91FF90EF90DF90CF900895089580E078
:1002700090E00895FC01538D448D252F30E0842FAC
:1002800090E0821B930B541710F0CF9608950197BE
:100290000895FC01918D828D981761F0828DDF01A8
:1002A000A80FB11D5D968C91928D9F5F9F73928F69
:1002B00090E008958FEF9FEF0895FC01918D828D5E
:1002C000981731F0828DE80FF11D858D90E008952B
:1002D0008FEF9FEF0895FC01918D228D892F90E083
:1002E000805C9F4F821B91098F73992708958EEA36
:1002F00091E00E946B0121E0892B09F420E0822F1C
:100300000895FC01848DDF01A80FB11DA35ABF4FD2
:100310002C91848D90E001968F739927848FA68904
:10032000B7892C93A089B1898C9180648C93938D2B
:10033000848D981306C00288F389E02D80818F7D1B
:1003400080830895EF92FF920F931F93CF93DF93D3
:10035000EC0181E0888F9B8D8C8D981305C0E88916
:10036000F989808185FD24C0F62E0B8D10E00F5F8A
:100370001F4F0F731127E02E8C8DE8120CC00FB6A3
:1003800007FCFACFE889F989808185FFF5CFCE0196
:100390000E948101F1CF8B8DFE01E80FF11DE35A20
:1003A000FF4FF0820B8FEA89FB898081806207C052
:1003B000EE89FF896083E889F98980818064808380
:1003C00081E090E0DF91CF911F910F91FF90EF902E
:1003D0000895CF93DF93EC01888D8823C9F0EA89D3
:1003E000FB89808185FD05C0A889B9898C9186FD2E
:1003F0000FC00FB607FCF5CF808185FFF2CFA8892B
:10040000B9898C9185FFEDCFCE010E948101E7CFA4
:10041000DF91CF91089580E090E0892B29F00E9430
:10042000770181110C940000089590E0FC01E859D7
:10043000FF4F3491FC01EC55FF4F2491FC01E05734
:10044000FF4FE491EE2309F43BC0332339F13330FD
:1004500091F038F43130A9F0323001F584B58F7D58
:1004600012C0373091F03830A1F03430B9F48091B7
:1004700080008F7D03C0809180008F778093800003
:100480000DC084B58F7784BD09C08091B0008F778F
:1004900003C08091B0008F7D8093B000F0E0EE0F3C
:1004A000FF1FE458FF4FA591B4918FB7F894EC91DA
:1004B000611103C020952E2301C02E2B2C938FBFDA
:1004C0000895009769F0FC0101900020E9F7319749
:1004D000AF01481B590BBC018EEA91E00C940B0153
:1004E00080E090E008958F929F92AF92BF92CF925A
:1004F000DF92EF92FF920F931F93CF93DF93CDB7CD
:10050000DEB7A1970FB6F894DEBF0FBECDBF6C016A
:10051000990FEE08FF08F7FE31C0E091AE01F091AF
:10052000AF010190F081E02D6DE28EEA91E0099536
:100530008C0122273327A9012C193D094E095F0997
:1005400019A2CE0181967C019AE0892E912CA12CD2
:10055000B12CCA01B901A50194010E944F08605D48
:10056000F70162937F01211531054105510589F796
:10057000CF010E946102800F911F1DC0A70196014B
:1005800019A28E010F5D1F4F8AE0C82ED12CE12CDD
:10059000F12CCA01B901A70196010E944F08605DC4
:1005A000F80162938F01211531054105510589F745
:1005B000CF010E946102A1960FB6F894DEBF0FBE74
:1005C000CDBFDF91CF911F910F91FF90EF90DF9002
:1005D000CF90BF90AF909F908F900895CF93DF936F
:1005E000EC0188819981009711F00E9456091982C7
:1005F00018821D821C821B821A82DF91CF9108957E
:100600000E94B80A0F931F93CF93DF93EC01888168
:100610009981009729F02A813B812617370788F4B2
:100620008B016F5F7F4F0E94EE09009761F0998305
:1006300088831B830A832C813D81232B11F4FC01C9
:10064000108281E001C080E0DF91CF911F910F9176
:1006500008951F920F920FB60F9211242F933F937C
:100660004F935F936F937F938F939F93AF93BF93BA
:10067000EF93FF938EEA91E00E948101FF91EF9149
:10068000BF91AF919F918F917F916F915F914F91AA
:100690003F912F910F900FBE0F901F9018951F92B2
:1006A0000F920FB60F9211242F938F939F93EF9376
:1006B000FF93E091BE01F091BF018081E091C40100
:1006C000F091C50182FD12C090818091C7018F5FBA
:1006D0008F732091C801821751F0E091C701F0E0BB
:1006E000E255FE4F958F8093C70101C08081FF9135
:1006F000EF919F918F912F910F900FBE0F901F90B0
:1007000018951F920F920FB60F9211242F933F93BB
:100710008F939F93AF93BF938091A6019091A70170
:10072000A091A801B091A9013091A50123E0230F68
:100730002D3720F40196A11DB11D05C026E8230F19
:100740000296A11DB11D2093A5018093A60190934F
:10075000A701A093A801B093A9018091A101909154
:10076000A201A091A301B091A4010196A11DB11D08
:100770008093A1019093A201A093A301B093A4013F
:10078000BF91AF919F918F913F912F910F900FBE8D
:100790000F901F9018951F920F920FB60F92112471
:1007A0002F933F934F935F936F937F938F939F9379
:1007B000AF93BF93EF93FF938091A00187FF05C094
:1007C00010928500109284001BC02091A001022E7F
:1007D000000C330B80916F0290E02817390784F4E6
:1007E0008091A001082E000C990BFC01EE0FFF1F59
:1007F0008E0F9F1FFC01E55BFD4F808186FD15C0BC
:100800008091A0018F5F8093A0012091A001022E12
:10081000000C330B80916F0290E028173907C4F465
:100820008091A0018C3064F113C08091A001082E4A
:10083000000C990BFC01EE0FFF1F8E0F9F1FFC0198
:10084000E55BFD4F808160E08F730E941502D8CF79
:100850008091840090918500049680349C4918F41E
:1008600080E49CE905C08091840090918500049605
:1008700090938900809388008FEF8093A0013BC004
:1008800020918400309185008091A001082E000CF9
:10089000990BFC01EE0FFF1F8E0F9F1FFC01E55B04
:1008A000FD4F81819281820F931F909389008093E5
:1008B00088008091A001082E000C990BFC01EE0F1E
:1008C000FF1F8E0F9F1FFC01E55BFD4F808186FFA0
:1008D00012C08091A001082E000C990BFC01EE0FB4
:1008E000FF1F8E0F9F1FFC01E55BFD4F808161E0C4
:1008F0008F730E941502FF91EF91BF91AF919F916D
:100900008F917F916F915F914F913F912F910F90B8
:100910000FBE0F901F9018951092B1011092B00168
:1009200088EE93E0A0E0B0E08093B2019093B30131
:10093000A093B401B093B50184E891E09093AF0126
:100940008093AE0185EC90E09093BB018093BA0157
:1009500084EC90E09093BD018093BC0180EC90E02A
:100960009093BF018093BE0181EC90E09093C10110
:100970008093C00182EC90E09093C3018093C20108
:1009800086EC90E09093C5018093C4011092C7015A
:100990001092C8011092C9011092CA0180916F0291
:1009A0008C30A0F491E0980F90936F0280937002C6
:1009B00090E0FC01EE0FFF1F8E0F9F1FFC01E55B17
:1009C000FD4F88EB9BE09283818308958FEF8093A6
:1009D00070020895CF93DF93CDB7DEB768970FB657
:1009E000F894DEBF0FBECDBF789484B5826084BD1D
:1009F00084B5816084BD85B5826085BD85B5816023
:100A000085BD80916E00816080936E0010928100A0
:100A1000809181008260809381008091810081605B
:100A2000809381008091800081608093800080911C
:100A3000B10084608093B1008091B00081608093A8
:100A4000B00080917A00846080937A0080917A006F
:100A5000826080937A0080917A00816080937A002E
:100A600080917A00806880937A001092C100E091B2
:100A7000BE01F091BF0182E08083E091BA01F09164
:100A8000BB011082E091BC01F091BD018FEC80832D
:100A90001092C601E091C201F091C30186E080830B
:100AA000E091C001F091C101808180618083E0917B
:100AB000C001F091C101808188608083E091C00114
:100AC000F091C101808180688083E091C001F09144
:100AD000C10180818F7D80838AB18C6F8AB984B196
:100AE000836084B987B187B92C9A2B9A8091700260
:100AF0008C3008F068C0E1EBF0E02491EDE9F0E023
:100B00008491882399F090E0880F991FFC01EA579F
:100B1000FF4FA591B491FC01E458FF4F859194914A
:100B20008FB7F894EC91E22BEC938FBF8091700219
:100B3000E82FF0E09F01220F331FE20FF31FE55B68
:100B4000FD4F9081907C9D60908310927102109275
:100B500072026CE00E9480084CE0849FB001112476
:100B600040E050E09A01260F371FF901EE0FFF1FFA
:100B70002E0F3F1FF901E55BFD4F908196FD16C0DA
:100B80004F5F5F4F4C30510569F781110FC01092D4
:100B9000800082E080938100109285001092840092
:100BA000B19A80916F00826080936F00E091700233
:100BB000F0E0CF01880F991FE80FF91FE55BFD4FAB
:100BC00080818064808384E190E00E9487008E01B0
:100BD0000F5F1F4F22242394312C80E480937C00EC
:100BE00080917A00806480937A0080917A0086FDFB
:100BF000FCCFE090780080917900F12CF82A24E66F
:100C000030E0D7010E94A0082FEF33E040E050E031
:100C10000E94E60729013A01590182E991E00E9408
:100C20006102C12CD12CCA14DB0419F484E991E0CF
:100C300002C08DE991E00E9461029FEFC91AD90AB2
:100C400044E6C416D10479F71C8A1B8A1E8A1D8AC1
:100C5000188E1F8A4AE0B801C7010E94B107F80147
:100C600001900020E9F731976F01C01AD10AB6014F
:100C7000CE0143960E940203811105C0CE01439626
:100C80000E94EE0207C0D88ECF8AB8018B899C895A
:100C90000E94C60A1A8219821C821B821E821D8231
:100CA00063E070E0C8010E940203811104C0C80122
:100CB0000E94EE020AC083E090E09E838D8366E985
:100CC00071E089819A810E94C60A8F89988D8B88EC
:100CD0009C88CD80DE808114910409F426C10097A0
:100CE000A1F0C80ED91EB601C8010E9402038823D4
:100CF00009F41BC129813A818D819E81B401820F43
:100D0000931F0E94C60ADE82CD82CD80DE808FEFE7
:100D1000C81AD80AB601C8010E940203882309F440
:100D20001CC129813A818D819E816AE971E0820F1F
:100D3000931F0E94C60ADE82CD824D815E81698149
:100D40007A818EEA91E00E940B0189819A810E944A
:100D500056098B899C890E9456098CE991E00E9472
:100D60006102C5016AE070E00E948C086B01CB0152
:100D70000E9473028CE991E00E946102C7010E9407
:100D800073026C2D82E090E020E030E047E0C49EEA
:100D9000D0011124FD01E20FF31FE05FFE4F4081FF
:100DA0008830A9F07BB1413041F4A101082E01C087
:100DB000440F0A94EAF7472B08C0A101082E01C08E
:100DC000440F0A94EAF7409547234BB905C04130D8
:100DD00011F4289A01C028982F5F3F4F019689305F
:100DE0009105C1F6663010F0299A01C029988CE36C
:100DF00048165104610471040CF494C083B18071ED
:100E000090E020910801309109018217930709F0C1
:100E100090C083B1887090E0209106013091070165
:100E20008217930709F085C02FB7F8948091A60127
:100E30009091A701A091A801B091A9012FBF409165
:100E4000AA015091AB016091AC017091AD01841B7E
:100E5000950BA60BB70BC397A105B10508F454C0B9
:100E600083B1807190E020910401309105018217D7
:100E70009307E9F083B18071282F30E030930501AA
:100E800020930401811113C080910201909103010C
:100E9000843B910564F4CC0CDD1CCC0CDD1C8C0D6A
:100EA0009D1D90930301809302010E94870083B1EE
:100EB000887090E020910001309101018217930722
:100EC00019F183B18870282F30E03093010120930D
:100ED0000001811119C020910201309103012531D7
:100EE000310594F0C50166EF7FEF0E948C08CB01BD
:100EF000880F991F880F991F820F931F90930301EA
:100F0000809302010E94870083B1807190E09093EA
:100F100009018093080183B1887090E090930701E4
:100F2000809306010E940B0258CEC8010E94EE0277
:100F3000ECCE2FB7F8948091A6019091A701A091D3
:100F4000A801B091A9012FBF8093AA019093AB0192
:100F5000A093AC01B093AD0167CFC8010E94EE022F
:100F6000ECCEBB274A3031F4992322F4BDE29095B0
:100F700081959F4F0C94BD07BB27FB015527AA27DE
:100F8000880F991FAA1FA41710F0A41B8395505116
:100F9000B9F7A05DAA3308F0A95DA193009779F78E
:100FA000B111B1931192CB010C94D607DC01FC0175
:100FB000672F71917723E1F7329704C07C916D938D
:100FC00070836291AE17BF07C8F30895052E97FB93
:100FD0001EF400940E94FD0757FD07D00E944F08A1
:100FE00007FC03D04EF40C94FD07509540953095C6
:100FF00021953F4F4F4F5F4F089590958095709585
:1010000061957F4F8F4F9F4F08950E947108A59F54
:10101000900DB49F900DA49F800D911D11240895F3
:10102000B7FF0C9405080E940508821B930B0895D6
:101030002F923F924F925F926F927F928F929F92E8
:10104000AF92BF92CF92DF92EF92FF920F931F93D6
:10105000CF93DF93CDB7DEB7CA1BDB0B0FB6F89487
:10106000DEBF0FBECDBF09942A88398848885F84C7
:101070006E847D848C849B84AA84B984C884DF8038
:10108000EE80FD800C811B81AA81B981CE0FD11D1C
:101090000FB6F894DEBF0FBECDBFED010895A1E2FB
:1010A0001A2EAA1BBB1BFD010DC0AA1FBB1FEE1FE2
:1010B000FF1FA217B307E407F50720F0A21BB30B2D
:1010C000E40BF50B661F771F881F991F1A9469F7A9
:1010D00060957095809590959B01AC01BD01CF0105
:1010E0000895A29FB001B39FC001A39F700D811D01
:1010F0001124911DB29F700D811D1124911D089521
:10110000991B79E004C0991F961708F0961B881F59
:101110007A95C9F78095089597FB072E16F40094E9
:1011200007D077FD09D00E94A70807FC05D03EF440
:10113000909581959F4F0895709561957F4F089583
:101140000E947108B7FF0895821B930B0895AA1B94
:10115000BB1B51E107C0AA1FBB1FA617B70710F0A2
:10116000A61BB70B881F991F5A95A9F780959095D4
:10117000BC01CD010895EE0FFF1F0590F491E02D05
:101180000994CF93DF938230910510F482E090E0D0
:10119000E0917502F091760220E030E0C0E0D0E00E
:1011A000309711F14081518148175907C0F0481715
:1011B000590761F482819381209719F09B838A8378
:1011C0002BC0909376028093750226C021153105BD
:1011D00019F04217530718F49A01BE01DF01EF011D
:1011E0000280F381E02DDCCF2115310509F1281BA8
:1011F000390B2430310590F412968D919C91139700
:101200006115710521F0FB019383828304C09093E3
:10121000760280937502FD01329644C0FD01E20F13
:10122000F31F81939193225031092D933C933AC03F
:101230002091730230917402232B41F420910C0110
:1012400030910D01309374022093730220910A01B2
:1012500030910B012115310541F42DB73EB7409176
:101260000E0150910F01241B350BE0917302F09198
:101270007402E217F307A0F42E1B3F0B281739075F
:1012800078F0AC014E5F5F4F2417350748F04E0FE2
:101290005F1F50937402409373028193919302C035
:1012A000E0E0F0E0CF01DF91CF9108950F931F931D
:1012B000CF93DF93009709F48CC0FC01329713821F
:1012C000128200917502109176020115110581F4C8
:1012D00020813181820F931F20917302309174021B
:1012E0002817390779F5F0937402E093730271C0FF
:1012F000D80140E050E0AE17BF0750F412962D9190
:101300003C911397AD012115310509F1D901F3CFB6
:101310009D01DA013383228360817181860F971FDB
:101320008217930769F4EC0128813981260F371F52
:101330002E5F3F4F318320838A819B8193838283F9
:10134000452B29F4F0937602E093750242C0139680
:10135000FC93EE931297ED01499159919E01240F50
:10136000351FE217F30771F480819181840F951F77
:10137000029611969C938E938281938113969C93EF
:101380008E931297E0E0F0E0D80112968D919C9137
:101390001397009719F0F8018C01F6CF8D919C916D
:1013A00098012E5F3F4F820F931F2091730230915F
:1013B00074022817390769F4309729F410927602DD
:1013C0001092750202C0138212821093740200936D
:1013D0007302DF91CF911F910F910895A0E0B0E0CB
:1013E000E4EFF9E00C941C08EC01009721F4CB0128
:1013F0000E94C108B8C0FC01E60FF71F9C012250F3
:101400003109E217F30708F4ACC0D9010D911C9122
:10141000119706171707B0F00530110508F49FC0A3
:10142000C80104978617970708F499C0025011095C
:10143000061B170B019311936D937C93CF010E94B0
:1014400056098DC05B01A01AB10A4C01800E911E95
:10145000A0917502B091760240E050E0E12CF12CB1
:10146000109709F44AC0A815B905D1F56D907C9084
:101470001197630182E0C80ED11CCA14DB0480F10D
:10148000A3014A195B096A0182E0C80ED11C1296B9
:10149000BC9012971396AC91B5E0CB16D10440F0F6
:1014A000B282A38351834083D9016D937C930AC098
:1014B0000E5F1F4FC301800F911FF901918380833D
:1014C000EB2DFA2FE114F10431F0D7011396FC93C0
:1014D000EE93129744C0F0937602E09375023FC0FA
:1014E0008D919C9111974817590708F4AC017D0123
:1014F00012960D90BC91A02DB3CF80917302909164
:10150000740288159905E1F446175707C8F48091CD
:101510000A0190910B01009741F48DB79EB740915D
:101520000E0150910F01841B950BE817F907C8F4C1
:10153000F0937402E0937302F901718360830FC02A
:10154000CB010E94C1087C01009759F0A801BE019F
:101550000E94BD0ACE010E945609C70104C0CE01F7
:1015600002C080E090E0CDB7DEB7EEE00C94380822
:1015700081E090E0F8940C94CD0AFB01DC0102C0FC
:1015800001900D9241505040D8F70895FB01DC01C5
:0E15900001900D920020E1F70895F894FFCF2E
:10159E00010014000100010001000000770280002C
:1015AE000101010101010000010100000000010123
:1015BE000001010001010101010000010001010013
:1015CE000001010100010100010101000101010101
:1015DE0001010101000000000101010101010101F1
:1015EE0001010000010101010100010101000001E2
:1015FE0001010101010000010101000001010101D1
:10160E0000010100000101010101000000010101C2
:10161E0000000000A2010B013A01E9016B01490132
:10162E005D013C007C003E20280029002D2D00008D
:00000001FF
