:100000000C945D000C9485000C9485000C94850084
:100010000C9485000C9485000C9485000C9485004C
:100020000C9485000C9485000C9485000C94B80306
:100030000C9485000C9485000C9485000C9485002C
:100040000C946E030C9485000C943C030C941603E2
:100050000C9485000C9485000C9485000C9485000C
:100060000C9485000C94850000000008000201003B
:100070000003040700000000000000000000000072
:10008000250028002B0000000000240027002A0083
:10009000040404040404040402020202020203032E
:1000A0000303030301020408102040800102040836
:1000B0001020010204081020790411241FBECFEF84
:1000C000D8E0DEBFCDBF11E0A0E0B1E0EAEAF5E1A3
:1000D00002C005900D92A23AB107D9F722E0A2EA38
:1000E000B1E001C01D92A937B207E1F710E0CDE5FC
:1000F000D0E004C02197FE010E94C108CC35D10791
:10010000C9F70E94D7040C94D30A0C940000CF9234
:10011000DF92EF92FF92DC01A03282E0B8070CF090
:100120003EC0B7FD06C0A53BB1052CF0A4EBB0E086
:1001300002C0A0E0B0E08091730228E830E06901DD
:10014000C81AD10887FDD394CC0CDD1CCC0CDD1C67
:100150000D2C000CEE08FF088091740228E532E0B7
:10016000281B310987FD3395220F331F220F331FC0
:10017000A901330F660B770B9A01AB012C193D09CE
:100180004E095F090E94160824EB30E040E050E081
:100190000E94EC07C20ED31EE41EF51ED6019091FC
:1001A00072029C3098F58091730248E850E0481B39
:1001B000510987FD5395440F551F440F551FA41730
:1001C000B5078CF08091740228E532E0281B3109D4
:1001D00087FD3395220F331F220F331FAD012A17DE
:1001E0003B070CF4A90142505109440F551F2FB78A
:1001F000F894892F90E0FC01EE0FFF1F8E0F9F1FD8
:10020000FC01E35BFD4F528341832FBFFF90EF90D2
:10021000DF90CF900895CF92DF92EF92FF920F93ED
:100220001F93CF93DF936C017A018B01C0E0D0E084
:10023000CE15DF0589F0D8016D918D01D601ED91C4
:10024000FC910190F081E02DC6010995892B11F4F4
:100250007E0102C02196ECCFC701DF91CF911F91A3
:100260000F91FF90EF90DF90CF900895089580E078
:1002700090E00895FC01538D448D252F30E0842FAC
:1002800090E0821B930B541710F0CF9608950197BE
:100290000895FC01918D828D981761F0828DDF01A8
:1002A000A80FB11D5D968C91928D9F5F9F73928F69
:1002B00090E008958FEF9FEF0895FC01918D828D5E
:1002C000981731F0828DE80FF11D858D90E008952B
:1002D0008FEF9FEF0895FC01918D228D892F90E083
:1002E000805C9F4F821B91098F739927089580EB43
:1002F00091E00E946B0121E0892B09F420E0822F1C
:100300000895FC01848DDF01A80FB11DA35ABF4FD2
:100310002C91848D90E001968F739927848FA68904
:10032000B7892C93A089B1898C9180648C93938D2B
:10033000848D981306C00288F389E02D80818F7D1B
:1003400080830895EF92FF920F931F93CF93DF93D3
:10035000EC0181E0888F9B8D8C8D981305C0E88916
:10036000F989808185FD24C0F62E0B8D10E00F5F8A
:100370001F4F0F731127E02E8C8DE8120CC00FB6A3
:1003800007FCFACFE889F989808185FFF5CFCE0196
:100390000E948101F1CF8B8DFE01E80FF11DE35A20
:1003A000FF4FF0820B8FEA89FB898081806207C052
:1003B000EE89FF896083E889F98980818064808380
:1003C00081E090E0DF91CF911F910F91FF90EF902E
:1003D0000895CF93DF93EC01888D8823C9F0EA89D3
:1003E000FB89808185FD05C0A889B9898C9186FD2E
:1003F0000FC00FB607FCF5CF808185FFF2CFA8892B
:10040000B9898C9185FFEDCFCE010E948101E7CFA4
:10041000DF91CF91089580E090E0892B29F00E9430
:10042000770181110C940000089590E0FC01E859D7
:10043000FF4F3491FC01EC55FF4F2491FC01E05734
:10044000FF4FE491EE2309F43BC0332339F13330FD
:1004500091F038F43130A9F0323001F584B58F7D58
:1004600012C0373091F03830A1F03430B9F48091B7
:1004700080008F7D03C0809180008F778093800003
:100480000DC084B58F7784BD09C08091B0008F778F
:1004900003C08091B0008F7D8093B000F0E0EE0F3C
:1004A000FF1FE458FF4FA591B4918FB7F894EC91DA
:1004B000611103C020952E2301C02E2B2C938FBFDA
:1004C0000895009769F0FC0101900020E9F7319749
:1004D000AF01481B590BBC0180EB91E00C940B0160
:1004E00080E090E008958F929F92AF92BF920F9319
:1004F0001F93CF93DF93CDB7DEB7A1970FB6F894D4
:10050000DEBF0FBECDBF19A2423008F44AE08E0113
:100510000F5D1F4F842E912CA12CB12CA5019401AD
:100520000E945508E62FB901CA0101501109EA30AD
:1005300014F4E05D01C0E95CD801EC93232B242B7B
:10054000252B61F7C8010E946102A1960FB6F894AD
:10055000DEBF0FBECDBFDF91CF911F910F91BF9036
:10056000AF909F908F900895CF92DF92EF92FF927D
:10057000CF93DF936B017C01E091B001F091B10169
:100580000190F081E02D6DE280EB91E00995EC01A6
:1005900066277727CB016C197D098E099F094AE0F0
:1005A0000E9473028C0F9D1FDF91CF91FF90EF90FF
:1005B000DF90CF900895CF93DF93EC0188819981EC
:1005C000009711F00E945C09198218821D821C821A
:1005D0001B821A82DF91CF9108950E94BE0A0F9369
:1005E0001F93CF93DF93EC0188819981009729F0C5
:1005F0002A813B812617370788F48B016F5F7F4F75
:100600000E94F409009761F0998388831B830A8311
:100610002C813D81232B11F4FC01108281E001C06B
:1006200080E0DF91CF911F910F9108951F920F925B
:100630000FB60F9211242F933F934F935F936F93B5
:100640007F938F939F93AF93BF93EF93FF9380EB31
:1006500091E00E948101FF91EF91BF91AF919F9135
:100660008F917F916F915F914F913F912F910F905B
:100670000FBE0F901F9018951F920F920FB60F92FA
:1006800011242F938F939F93EF93FF93E091C001D9
:10069000F091C1018081E091C601F091C70182FD16
:1006A00012C090818091C9018F5F8F732091CA0120
:1006B000821751F0E091C901F0E0E055FE4F958FAF
:1006C0008093C90101C08081FF91EF919F918F912B
:1006D0002F910F900FBE0F901F9018951F920F92A1
:1006E0000FB60F9211242F933F938F939F93AF9345
:1006F000BF938091A8019091A901A091AA01B09106
:10070000AB013091A70123E0230F2D3720F4019690
:10071000A11DB11D05C026E8230F0296A11DB11D24
:100720002093A7018093A8019093A901A093AA0107
:10073000B093AB018091A3019091A401A091A50178
:10074000B091A6010196A11DB11D8093A3019093C4
:10075000A401A093A501B093A601BF91AF919F9171
:100760008F913F912F910F900FBE0F901F90189572
:100770001F920F920FB60F9211242F933F934F9316
:100780005F936F937F938F939F93AF93BF93EF93F9
:10079000FF938091A20187FF05C0109285001092FF
:1007A00084001BC02091A201022E000C330B80910B
:1007B000710290E02817390784F48091A201082E75
:1007C000000C990BFC01EE0FFF1F8E0F9F1FFC0109
:1007D000E35BFD4F808186FD15C08091A2018F5F94
:1007E0008093A2012091A201022E000C330B809174
:1007F000710290E028173907C4F48091A2018C306F
:1008000064F113C08091A201082E000C990BFC0129
:10081000EE0FFF1F8E0F9F1FFC01E35BFD4F8081DA
:1008200060E08F730E941502D8CF80918400909170
:100830008500049680349C4918F480E49CE905C046
:100840008091840090918500049690938900809314
:1008500088008FEF8093A2013BC0209184003091EB
:1008600085008091A201082E000C990BFC01EE0F6F
:10087000FF1F8E0F9F1FFC01E35BFD4F8181928163
:10088000820F931F90938900809388008091A2012A
:10089000082E000C990BFC01EE0FFF1F8E0F9F1FFF
:1008A000FC01E35BFD4F808186FF12C08091A201B5
:1008B000082E000C990BFC01EE0FFF1F8E0F9F1FDF
:1008C000FC01E35BFD4F808161E08F730E941502A4
:1008D000FF91EF91BF91AF919F918F917F916F9118
:1008E0005F914F913F912F910F900FBE0F901F90EE
:1008F00018951092B3011092B20188EE93E0A0E037
:10090000B0E08093B4019093B501A093B601B09389
:10091000B70184E891E09093B1018093B00185EC38
:1009200090E09093BD018093BC0184EC90E09093A3
:10093000BF018093BE0180EC90E09093C101809351
:10094000C00181EC90E09093C3018093C20182ECDE
:1009500090E09093C5018093C40186EC90E0909361
:10096000C7018093C6011092C9011092CA0110926A
:10097000CB011092CC01809171028C30A0F491E0F7
:10098000980F909371028093720290E0FC01EE0F39
:10099000FF1F8E0F9F1FFC01E35BFD4F88EB9BE069
:1009A0009283818308958FEF809372020895CF938D
:1009B000DF93CDB7DEB768970FB6F894DEBF0FBEF2
:1009C000CDBF789484B5826084BD84B5816084BDD8
:1009D00085B5826085BD85B5816085BD80916E00DD
:1009E000816080936E00109281008091810082600E
:1009F000809381008091810081608093810080914B
:100A000080008160809380008091B1008460809339
:100A1000B1008091B00081608093B00080917A0035
:100A2000846080937A0080917A00826080937A005B
:100A300080917A00816080937A0080917A0080684A
:100A400080937A001092C100E091C001F091C10141
:100A500082E08083E091BC01F091BD011082E091C1
:100A6000BE01F091BF018FEC80831092C801E0912C
:100A7000C401F091C50186E08083E091C201F0914C
:100A8000C301808180618083E091C201F091C30144
:100A9000808188608083E091C201F091C3018081F0
:100AA00080688083E091C201F091C30180818F7DD5
:100AB00080838CEF8AB983E084B917B888E185B95F
:100AC000809172028C3008F068C0E1EBF0E0249174
:100AD000EDE9F0E08491882399F090E0880F991F68
:100AE000FC01EA57FF4FA591B491FC01E458FF4F78
:100AF000859194918FB7F894EC91E22BEC938FBF92
:100B000080917202E82FF0E09F01220F331FE20F65
:100B1000F31FE35BFD4F9081907C9D60908310926A
:100B20007302109274026CE00E9486084CE0849F6D
:100B3000B001112440E050E09A01260F371FF9015F
:100B4000EE0FFF1F2E0F3F1FF901E35BFD4F90815A
:100B500096FD16C04F5F5F4F4C30510569F781110C
:100B60000FC01092800082E0809381001092850077
:100B700010928400B19A80916F00826080936F0020
:100B8000E0917202F0E0CF01880F991FE80FF91F82
:100B9000E35BFD4F80818064808384E190E00E946C
:100BA00087008E010F5F1F4F22242394312C80E495
:100BB00080937C0080917A00806480937A00809199
:100BC0007A0086FDFCCFC090780080917900D12C0E
:100BD000D82A24E630E0D6010E94A6082FEF33E0A1
:100BE00040E050E00E94EC0749015A01290182E9E6
:100BF00091E00E946102E12CF12CE414F50419F457
:100C000084E991E002C08DE991E00E9461029FEFCA
:100C1000E91AF90A44E6E416F10479F71C8A1B8AFA
:100C20001E8A1D8A188E1F8A4AE0B801C6010E94DA
:100C3000B707F80101900020E9F731977F01E01A2A
:100C4000F10AB701CE0143960E94EF02811105C05F
:100C5000CE0143960E94DB0207C0F88EEF8AB801EE
:100C60008B899C890E94CC0A1A8219821C821B8261
:100C70001E821D8263E070E0C8010E94EF028111B4
:100C800004C0C8010E94DB020AC083E090E09E839A
:100C90008D8366E971E089819A810E94CC0A8F89EF
:100CA000988D6B887C88ED80FE806114710409F456
:100CB00042C10097A1F0E80EF91EB701C8010E94D9
:100CC000EF02882309F437C129813A818D819E8101
:100CD000B301820F931F0E94CC0AFE82ED82ED8049
:100CE000FE808FEFE81AF80AB701C8010E94EF02F0
:100CF000882309F438C129813A818D819E816AE96E
:100D000071E0820F931F0E94CC0AFE82ED824D811A
:100D10005E8169817A8180EB91E00E940B0189817B
:100D20009A810E945C098B899C890E945C098CE9EC
:100D300091E00E946102C2016AE070E00E949208A4
:100D40007B01072E000C880B990BF7FE03C00E9455
:100D5000B40203C04AE00E9473028CE991E00E9451
:100D60006102C60164E670E00E9492089B01072EB2
:100D7000000C880B990B37FF03C00E94B40203C01C
:100D80004AE00E9473028FE991E00E9461026E2D99
:100D900082E090E020E030E047E0E49ED0011124C2
:100DA000FD01E20FF31FE05FFE4F40818830A9F0A4
:100DB0007BB1413041F4A101082E01C0440F0A94D7
:100DC000EAF7472B08C0A101082E01C0440F0A947E
:100DD000EAF7409547234BB905C0413011F4289AF2
:100DE00001C028982F5F3F4F019689309105C1F6C9
:100DF000663010F0299A01C029988CE38816910476
:100E0000A104B1040CF494C083B1807190E02091EE
:100E10000801309109018217930709F090C083B14E
:100E2000887090E0209106013091070182179307A6
:100E300009F085C02FB7F8948091A8019091A9017D
:100E4000A091AA01B091AB012FBF4091AC0150918C
:100E5000AD016091AE017091AF01841B950BA60BA3
:100E6000B70BC397A105B10508F454C083B18071D5
:100E700090E0209104013091050182179307E9F079
:100E800083B18071282F30E0309305012093040155
:100E9000811113C08091020190910301843B91055F
:100EA00064F4EE0CFF1CEE0CFF1C8E0D9F1D909346
:100EB0000301809302010E94870083B1887090E053
:100EC00020910001309101018217930719F183B13C
:100ED0008870282F30E030930101209300018111A8
:100EE00019C020910201309103012531310594F0A0
:100EF000C20166EF7FEF0E949208CB01880F991F15
:100F0000880F991F820F931F909303018093020112
:100F10000E94870083B1807190E0909309018093D3
:100F2000080183B1887090E09093070180930601D7
:100F30000E940B023CCEC8010E94DB02D0CE2FB72C
:100F4000F8948091A8019091A901A091AA01B09173
:100F5000AB012FBF8093AC019093AD01A093AE0184
:100F6000B093AF0167CFC8010E94DB02D0CEBB2790
:100F70004A3031F4992322F4BDE2909581959F4F38
:100F80000C94C307BB27FB015527AA27880F991F7D
:100F9000AA1FA41710F0A41B83955051B9F7A05DA8
:100FA000AA3308F0A95DA193009779F7B111B19325
:100FB0001192CB010C94DC07DC01FC01672F7191CD
:100FC0007723E1F7329704C07C916D93708362912F
:100FD000AE17BF07C8F30895052E97FB1EF40094C3
:100FE0000E94030857FD07D00E94550807FC03D054
:100FF0004EF40C94030850954095309521953F4F41
:101000004F4F5F4F089590958095709561957F4FF4
:101010008F4F9F4F08950E947708A59F900DB49F12
:10102000900DA49F800D911D11240895B7FF0C947D
:101030000B080E940B08821B930B08952F923F927E
:101040004F925F926F927F928F929F92AF92BF92D8
:10105000CF92DF92EF92FF920F931F93CF93DF9384
:10106000CDB7DEB7CA1BDB0B0FB6F894DEBF0FBEE1
:10107000CDBF09942A88398848885F846E847D842E
:101080008C849B84AA84B984C884DF80EE80FD8030
:101090000C811B81AA81B981CE0FD11D0FB6F894A6
:1010A000DEBF0FBECDBFED010895A1E21A2EAA1B2F
:1010B000BB1BFD010DC0AA1FBB1FEE1FFF1FA21708
:1010C000B307E407F50720F0A21BB30BE40BF50B05
:1010D000661F771F881F991F1A9469F7609570958E
:1010E000809590959B01AC01BD01CF010895A29F11
:1010F000B001B39FC001A39F700D811D1124911DEC
:10110000B29F700D811D1124911D0895991B79E0E6
:1011100004C0991F961708F0961B881F7A95C9F787
:101120008095089597FB072E16F4009407D077FD5D
:1011300009D00E94AD0807FC05D03EF4909581953A
:101140009F4F0895709561957F4F08950E9477088D
:10115000B7FF0895821B930B0895AA1BBB1B51E197
:1011600007C0AA1FBB1FA617B70710F0A61BB70B17
:10117000881F991F5A95A9F780959095BC01CD01BC
:101180000895EE0FFF1F0590F491E02D0994CF9381
:10119000DF938230910510F482E090E0E0917702D5
:1011A000F091780220E030E0C0E0D0E0309711F11B
:1011B0004081518148175907C0F04817590761F419
:1011C00082819381209719F09B838A832BC090930F
:1011D00078028093770226C02115310519F0421755
:1011E000530718F49A01BE01DF01EF010280F38179
:1011F000E02DDCCF2115310509F1281B390B2430F6
:10120000310590F412968D919C911397611571059B
:1012100021F0FB019383828304C090937802809332
:101220007702FD01329644C0FD01E20FF31F819366
:101230009193225031092D933C933AC0209175022D
:1012400030917602232B41F420910C0130910D0155
:10125000309376022093750220910A0130910B01A0
:101260002115310541F42DB73EB740910E01509143
:101270000F01241B350BE0917502F0917602E21705
:10128000F307A0F42E1B3F0B2817390778F0AC01A9
:101290004E5F5F4F2417350748F04E0F5F1F509386
:1012A0007602409375028193919302C0E0E0F0E0F2
:1012B000CF01DF91CF9108950F931F93CF93DF93C9
:1012C000009709F48CC0FC013297138212820091BE
:1012D0007702109178020115110581F42081318186
:1012E000820F931F209175023091760228173907DB
:1012F00079F5F0937602E093750271C0D80140E071
:1013000050E0AE17BF0750F412962D913C91139701
:10131000AD012115310509F1D901F3CF9D01DA01A4
:101320003383228360817181860F971F8217930711
:1013300069F4EC0128813981260F371F2E5F3F4F5A
:10134000318320838A819B8193838283452B29F477
:10135000F0937802E093770242C01396FC93EE93E9
:101360001297ED01499159919E01240F351FE21703
:10137000F30771F480819181840F951F0296119675
:101380009C938E938281938113969C938E93129754
:10139000E0E0F0E0D80112968D919C9113970097B0
:1013A00019F0F8018C01F6CF8D919C9198012E5F78
:1013B0003F4F820F931F20917502309176022817BC
:1013C000390769F4309729F4109278021092770265
:1013D00002C0138212821093760200937502DF918D
:1013E000CF911F910F910895A0E0B0E0EAEFF9E0EE
:1013F0000C942208EC01009721F4CB010E94C7084D
:10140000B8C0FC01E60FF71F9C0122503109E2171A
:10141000F30708F4ACC0D9010D911C911197061780
:101420001707B0F00530110508F49FC0C8010497F4
:101430008617970708F499C002501109061B170B6D
:10144000019311936D937C93CF010E945C098DC031
:101450005B01A01AB10A4C01800E911EA091770287
:10146000B091780240E050E0E12CF12C109709F4A3
:101470004AC0A815B905D1F56D907C90119763010C
:1014800082E0C80ED11CCA14DB0480F1A3014A1902
:101490005B096A0182E0C80ED11C1296BC901297BB
:1014A0001396AC91B5E0CB16D10440F0B282A38381
:1014B00051834083D9016D937C930AC00E5F1F4F07
:1014C000C301800F911FF90191838083EB2DFA2FC7
:1014D000E114F10431F0D7011396FC93EE931297C7
:1014E00044C0F0937802E09377023FC08D919C91C5
:1014F00011974817590708F4AC017D0112960D9019
:10150000BC91A02DB3CF8091750290917602881581
:101510009905E1F446175707C8F480910A019091A4
:101520000B01009741F48DB79EB740910E01509189
:101530000F01841B950BE817F907C8F4F0937602A6
:10154000E0937502F901718360830FC0CB010E94A3
:10155000C7087C01009759F0A801BE010E94C30A88
:10156000CE010E945C09C70104C0CE0102C080E028
:1015700090E0CDB7DEB7EEE00C943E0881E090E05D
:10158000F8940C94D30AFB01DC0102C001900D9287
:1015900041505040D8F70895FB01DC0101900D92B5
:0A15A0000020E1F70895F894FFCF52
:1015AA00010014000100010001000000790280001E
:1015BA000101010101010000010100000000010117
:1015CA000001010001010101010000010001010007
:1015DA0000010101000101000101010001010101F5
:1015EA0001010101000000000101010101010101E5
:1015FA0001010000010101010100010101000001D6
:10160A0001010101010000010101000001010101C4
:10161A0000010100000101010101000000010101B6
:10162A0000000000A2010B013A01E9016B01490126
:10163A005D013C007C003E20280029002D2D000D74
:02164A000A0094
:00000001FF
