:100000000C9434000C9451000C9451000C94510049
:100010000C9451000C9451000C9451000C9451001C
:100020000C9451000C9451000C9451000C949D00C0
:100030000C9451000C9451000C9451000C945100FC
:100040000C9453000C9451000C9451000C945100EA
:100050000C9451000C9451000C9451000C945100DC
:100060000C9451000C94510011241FBECFEFD8E026
:10007000DEBFCDBF11E0A0E0B1E0E2E8F2E002C0F7
:1000800005900D92A230B107D9F721E0A2E0B1E0CE
:1000900001C01D92AD30B207E1F70E94D6000C946A
:1000A0003F010C9400001F920F920FB60F92112483
:1000B0002F933F938F939F93AF93BF9380910901A9
:1000C00090910A01A0910B01B0910C0130910801AF
:1000D00023E0230F2D3720F40196A11DB11D05C08B
:1000E00026E8230F0296A11DB11D209308018093DD
:1000F000090190930A01A0930B01B0930C01809128
:10010000040190910501A0910601B09107010196AB
:10011000A11DB11D8093040190930501A0930601D8
:10012000B0930701BF91AF919F918F913F912F9114
:100130000F900FBE0F901F9018951F920F920FB641
:100140000F9211242F938F939F938091020190918E
:100150000301019690930301809302018130910580
:10016000E9F425B10090000102C0880F991F0A949C
:10017000E2F7822785B980910001909101018530D5
:10018000910514F4019602C083E090E09093010180
:100190008093000110920301109202019F918F91B0
:1001A0002F910F900FBE0F901F901895789484B5E3
:1001B000826084BD84B5816084BD85B5826085BD63
:1001C00085B5816085BD80916E00816080936E00F1
:1001D00010928100809181008260809381008091E3
:1001E0008100816080938100809180008160809394
:1001F00080008091B10084608093B1008091B00054
:1002000081608093B00080917A00846080937A004E
:1002100080917A00826080937A0080917A00816078
:1002200080937A0080917A00806880937A0010929F
:10023000C10088E384B9109280001092810010926E
:1002400085001092840089E09DE39093890080935B
:100250008800809181008860809381008091810076
:1002600085608093810080916F00826080936F0031
:10027000C0E0D0E02097F1F30E940000FBCFF8949B
:02028000FFCFAE
:02028200030077
:107E0000112484B714BE81FFF0D085E080938100F7
:107E100082E08093C00088E18093C10086E0809377
:107E2000C20080E18093C4008EE0C9D0259A86E02C
:107E300020E33CEF91E0309385002093840096BBD3
:107E4000B09BFECF1D9AA8958150A9F7CC24DD24C4
:107E500088248394B5E0AB2EA1E19A2EF3E0BF2EE7
:107E6000A2D0813461F49FD0082FAFD0023811F036
:107E7000013811F484E001C083E08DD089C08234E0
:107E800011F484E103C0853419F485E0A6D080C0E4
:107E9000853579F488D0E82EFF2485D0082F10E0AE
:107EA000102F00270E291F29000F111F8ED06801E7
:107EB0006FC0863521F484E090D080E0DECF843638
:107EC00009F040C070D06FD0082F6DD080E0C81688
:107ED00080E7D80618F4F601B7BEE895C0E0D1E017
:107EE00062D089930C17E1F7F0E0CF16F0E7DF06D8
:107EF00018F0F601B7BEE89568D007B600FCFDCFD4
:107F0000A601A0E0B1E02C9130E011968C91119780
:107F100090E0982F8827822B932B1296FA010C0160
:107F200087BEE89511244E5F5F4FF1E0A038BF0790
:107F300051F7F601A7BEE89507B600FCFDCF97BE46
:107F4000E89526C08437B1F42ED02DD0F82E2BD052
:107F50003CD0F601EF2C8F010F5F1F4F84911BD097
:107F6000EA94F801C1F70894C11CD11CFA94CF0C13
:107F7000D11C0EC0853739F428D08EE10CD085E9AC
:107F80000AD08FE07ACF813511F488E018D01DD067
:107F900080E101D065CF982F8091C00085FFFCCF94
:107FA0009093C60008958091C00087FFFCCF809118
:107FB000C00084FD01C0A8958091C6000895E0E648
:107FC000F0E098E1908380830895EDDF803219F02E
:107FD00088E0F5DFFFCF84E1DECF1F93182FE3DFCA
:107FE0001150E9F7F2DF1F91089580E0E8DFEE27F6
:047FF000FF270994CA
:027FFE00040479
:0400000300007E007B
:00000001FF
