:100000000C9435000C945D000C945D000C945D0024
:100010000C945D000C945D000C945D000C945D00EC
:100020000C945D000C945D000C945D000C945D00DC
:100030000C945D000C945D000C945D000C945D00CC
:100040000C9406020C945D000C94D4010C94AE0147
:100050000C945D000C945D000C945D000C945D00AC
:100060000C945D000C945D005C0311241FBECFEF67
:10007000D8E0DEBFCDBF11E0A0E0B1E0ECE2F7E0F8
:1000800002C005900D92A435B107D9F721E0A4E58F
:10009000B1E001C01D92AE3FB207E1F710E0C5E349
:1000A000D0E004C02197FE010E948903C433D10728
:1000B000C9F70E9450020C9494030C940000CF9254
:1000C000DF92EF92FF920F931F93CF93DF936C0118
:1000D0007A018B01C0E0D0E0CE15DF0589F0D801B0
:1000E0006D918D01D601ED91FC910190F081E02D93
:1000F000C6010995892B11F47E0102C02196ECCF2F
:10010000C701DF91CF911F910F91FF90EF90DF908A
:10011000CF900895089580E090E00895FC01538DFC
:10012000448D252F30E0842F90E0821B930B5417D1
:1001300010F0CF96089501970895FC01918D828D5E
:10014000981761F0828DDF01A80FB11D5D968C912B
:10015000928D9F5F9F73928F90E008958FEF9FEF36
:100160000895FC01918D828D981731F0828DE80FF2
:10017000F11D858D90E008958FEF9FEF0895FC01AC
:10018000918D228D892F90E0805C9F4F821B910979
:100190008F739927089581E691E00E94BF0021E0C6
:1001A000892B09F420E0822F0895FC01848DDF0162
:1001B000A80FB11DA35ABF4F2C91848D90E00196DA
:1001C0008F739927848FA689B7892C93A089B189C9
:1001D0008C9180648C93938D848D981306C00288D3
:1001E000F389E02D80818F7D80830895EF92FF92C7
:1001F0000F931F93CF93DF93EC0181E0888F9B8D4A
:100200008C8D981305C0E889F989808185FD24C00B
:10021000F62E0B8D10E00F5F1F4F0F731127E02E8E
:100220008C8DE8120CC00FB607FCFACFE889F9896B
:10023000808185FFF5CFCE010E94D500F1CF8B8D57
:10024000FE01E80FF11DE35AFF4FF0820B8FEA89A0
:10025000FB898081806207C0EE89FF896083E8891D
:10026000F98980818064808381E090E0DF91CF9183
:100270001F910F91FF90EF900895CF93DF93EC01C2
:10028000888D8823C9F0EA89FB89808185FD05C0B6
:10029000A889B9898C9186FD0FC00FB607FCF5CFF0
:1002A000808185FFF2CFA889B9898C9185FFEDCF38
:1002B000CE010E94D500E7CFDF91CF91089580E075
:1002C00090E0892B29F00E94CB0081110C94000052
:1002D00008953FB7F8948091590190915A01A091E7
:1002E0005B01B0915C0126B5A89B05C02F3F19F0BA
:1002F0000196A11DB11D3FBFBA2FA92F982F8827A6
:10030000820F911DA11DB11DBC01CD0142E0660F00
:10031000771F881F991F4A95D1F708952FB7F89432
:10032000609155017091560180915701909158014B
:100330002FBF0895009769F0FC0101900020E9F7B4
:100340003197AF01481B590BBC0181E691E00C9439
:100350005F0080E090E008950E948F031F920F924B
:100360000FB60F9211242F933F934F935F936F9388
:100370007F938F939F93AF93BF93EF93FF9381E608
:1003800091E00E94D500FF91EF91BF91AF919F91B5
:100390008F917F916F915F914F913F912F910F902E
:1003A0000FBE0F901F9018951F920F920FB60F92CD
:1003B00011242F938F939F93EF93FF93E0917101FB
:1003C000F09172018081E0917701F091780182FDD6
:1003D00012C0908180917A018F5F8F7320917B0191
:1003E000821751F0E0917A01F0E0EF59FE4F958FBE
:1003F00080937A0101C08081FF91EF919F918F914D
:100400002F910F900FBE0F901F9018951F920F9273
:100410000FB60F9211242F933F938F939F93AF9317
:10042000BF938091550190915601A0915701B091D1
:1004300058013091540123E0230F2D3720F4019609
:10044000A11DB11D05C026E8230F0296A11DB11DF7
:10045000209354018093550190935601A093570126
:10046000B09358018091590190915A01A0915B017C
:10047000B0915C010196A11DB11D8093590190932B
:100480005A01A0935B01B0935C01BF91AF919F9122
:100490008F913F912F910F900FBE0F901F90189545
:1004A000789484B5826084BD84B5816084BD85B54F
:1004B000826085BD85B5816085BD80916E0081605B
:1004C00080936E0010928100809181008260809301
:1004D0008100809181008160809381008091800003
:1004E0008160809380008091B10084608093B1002E
:1004F0008091B00081608093B00080917A00846028
:1005000080937A0080917A00826080937A00809153
:100510007A00816080937A0080917A00806880936D
:100520007A001092C100E0917101F091720182E0B5
:100530008083E0916D01F0916E011082E0916F0176
:10054000F09170018FEC808310927901E091750138
:10055000F091760186E08083E0917301F09174015F
:10056000808180618083E0917301F09174018081CA
:1005700088608083E0917301F091740180818068CC
:100580008083E0917301F091740180818F7D80837D
:100590008AB18AB95F9A259A0E948E01C0905D0146
:1005A000D0905E01E0905F01F0906001DC01CB0132
:1005B0008C199D09AE09BF09883E9340A105B1057C
:1005C00008F42D980E948E01C0905D01D0905E01CC
:1005D000E0905F01F0906001DC01CB018C199D0976
:1005E000AE09BF09883E9340A105B10508F02D9AD8
:1005F0000E948E01C0905D01D0905E01E0905F018D
:10060000F0906001DC01CB018C199D09AE09BF0996
:10061000803D9740A105B10550F00E948E01609386
:100620005D0170935E0180935F019093600182E1B0
:1006300091E00E949A018BE191E00E949A014F990A
:1006400038C08EE191E00E949A012D9AC6E0D0E078
:1006500087E391E00E949A018BE191E00E949A0168
:100660000E9469014B015C0188EEC82E83E0D82E00
:10067000E12CF12C0E946901DC01CB018819990958
:10068000AA09BB09883E9340A105B10558F081E055
:10069000C81AD108E108F10828EE820E23E0921E64
:1006A000A11CB11CC114D104E104F10419F7219774
:1006B00079F60E945F0170CFE1E6F1E013821282C9
:1006C00088EE93E0A0E0B0E084839583A683B783AF
:1006D00084E091E09183808385EC90E09587848726
:1006E00084EC90E09787868780EC90E0918B808BFC
:1006F00081EC90E0938B828B82EC90E0958B848BE5
:1007000086EC90E0978B868B118E128E138E148E52
:100710000895EE0FFF1F0590F491E02D099481E0FC
:0C07200090E0F8940C949403F894FFCF40
:10072C0000000000F6005F008E003D01BF009D0040
:10073C00B1006574617061203120000D0A0065788C
:10074C006563756E7461646F207768696C652831B8
:10075C00292121212120004C4544206163657373BC
:10076C006F20706F72203520736567756E646F73C0
:04077C002121210016
:00000001FF
