:100000000C9435000C945D000C945D000C945D0024
:100010000C945D000C945D000C945D000C945D00EC
:100020000C945D000C945D000C945D000C945D00DC
:100030000C945D000C945D000C945D000C945D00CC
:100040000C9416020C945D000C9486020C946002D1
:100050000C945D000C945D000C945D000C945D00AC
:100060000C945D000C945D00650311241FBECFEF5E
:10007000D8E0DEBFCDBF11E0A0E0B1E0E2E8F7E0FC
:1000800002C005900D92A832B107D9F721E0A8E28D
:10009000B1E001C01D92AE3CB207E1F710E0C5E34C
:1000A000D0E004C02197FE010E94B403C433D107FD
:1000B000C9F70E94B8020C94BF030C940000CF92C1
:1000C000DF92EF92FF920F931F93CF93DF936C0118
:1000D0007A018B01C0E0D0E0CE15DF0589F0D801B0
:1000E0006D918D01D601ED91FC910190F081E02D93
:1000F000C6010995892B11F47E0102C02196ECCF2F
:10010000C701DF91CF911F910F91FF90EF90DF908A
:10011000CF900895089580E090E00895FC01538DFC
:10012000448D252F30E0842F90E0821B930B5417D1
:1001300010F0CF96089501970895FC01918D828D5E
:10014000981761F0828DDF01A80FB11D5D968C912B
:10015000928D9F5F9F73928F90E008958FEF9FEF36
:100160000895FC01918D828D981731F0828DE80FF2
:10017000F11D858D90E008958FEF9FEF0895FC01AC
:10018000918D228D892F90E0805C9F4F821B910979
:100190008F739927089581E391E00E94BF0021E0C9
:1001A000892B09F420E0822F0895FC01848DDF0162
:1001B000A80FB11DA35ABF4F2C91848D90E00196DA
:1001C0008F739927848FA689B7892C93A089B189C9
:1001D0008C9180648C93938D848D981306C00288D3
:1001E000F389E02D80818F7D80830895EF92FF92C7
:1001F0000F931F93CF93DF93EC0181E0888F9B8D4A
:100200008C8D981305C0E889F989808185FD24C00B
:10021000F62E0B8D10E00F5F1F4F0F731127E02E8E
:100220008C8DE8120CC00FB607FCFACFE889F9896B
:10023000808185FFF5CFCE010E94D500F1CF8B8D57
:10024000FE01E80FF11DE35AFF4FF0820B8FEA89A0
:10025000FB898081806207C0EE89FF896083E8891D
:10026000F98980818064808381E090E0DF91CF9183
:100270001F910F91FF90EF900895CF93DF93EC01C2
:10028000888D8823C9F0EA89FB89808185FD05C0B6
:10029000A889B9898C9186FD0FC00FB607FCF5CFF0
:1002A000808185FFF2CFA889B9898C9185FFEDCF38
:1002B000CE010E94D500E7CFDF91CF91089580E075
:1002C00090E0892B29F00E94CB0081110C94000052
:1002D00008958E3008F08E508770806480937C0083
:1002E00080917A00806480937A0080917A0086FD04
:1002F000FCCF809178002091790090E0922B0895B6
:10030000009769F0FC0101900020E9F73197AF01F7
:10031000481B590BBC0181E391E00C945F0080E025
:1003200090E008958F929F92AF92BF92CF92DF920A
:10033000EF92FF920F931F93CF93DF93CDB7DEB76A
:10034000A1970FB6F894DEBF0FBECDBF6C01990F19
:10035000EE08FF08F7FE31C0E0913101F091320163
:100360000190F081E02D6DE281E391E009958C012F
:1003700022273327A9012C193D094E095F0919A22B
:10038000CE0181967C019AE0892E912CA12CB12C72
:10039000CA01B901A50194010E949203605DF701B1
:1003A00062937F01211531054105510589F7CF0180
:1003B0000E948001080F191F1EC0A701960119A2F3
:1003C0008E010F5D1F4F8AE0C82ED12CE12CF12C3D
:1003D000CA01B901A70196010E949203605DF8016C
:1003E00062938F01211531054105510589F7CF0130
:1003F0000E9480018C0182E191E00E948001800FC7
:10040000911FA1960FB6F894DEBF0FBECDBFDF914E
:10041000CF911F910F91FF90EF90DF90CF90BF9001
:10042000AF909F908F9008950E94BA031F920F92F1
:100430000FB60F9211242F933F938F939F93AF93F7
:10044000BF9380912D0190912E01A0912F01B09129
:10045000300130912C0123E0230F2D3720F4019639
:10046000A11DB11D05C026E8230F0296A11DB11DD7
:1004700020932C0180932D0190932E01A0932F01A6
:10048000B09330018091280190912901A0912A0117
:10049000B0912B010196A11DB11D8093280190936D
:1004A0002901A0932A01B0932B01BF91AF919F9195
:1004B0008F913F912F910F900FBE0F901F90189525
:1004C0001F920F920FB60F9211242F933F934F93C9
:1004D0005F936F937F938F939F93AF93BF93EF93AC
:1004E000FF9381E391E00E94D500FF91EF91BF91CE
:1004F000AF919F918F917F916F915F914F913F91BC
:100500002F910F900FBE0F901F9018951F920F9272
:100510000FB60F9211242F938F939F93EF93FF9316
:10052000E0914101F09142018081E0914701F09119
:10053000480182FD12C0908180914A018F5F8F73C4
:1005400020914B01821751F0E0914A01F0E0EF5CFD
:10055000FE4F958F80934A0101C08081FF91EF91FA
:100560009F918F912F910F900FBE0F901F90189514
:10057000789484B5826084BD84B5816084BD85B57E
:10058000826085BD85B5816085BD80916E0081608A
:1005900080936E0010928100809181008260809330
:1005A0008100809181008160809381008091800032
:1005B0008160809380008091B10084608093B1005D
:1005C0008091B00081608093B00080917A00846057
:1005D00080937A0080917A00826080937A00809183
:1005E0007A00816080937A0080917A00806880939D
:1005F0007A001092C100E0914101F091420182E045
:100600008083E0913D01F0913E011082E0913F0135
:10061000F09140018FEC808310924901E0914501F7
:10062000F091460186E08083E0914301F09144011E
:10063000808180618083E0914301F0914401808159
:1006400088608083E0914301F0914401808180685B
:100650008083E0914301F091440180818F7D80830C
:1006600010BE80E384B917B885E191E00E94800153
:1006700080B7807290E00E94920100B605FE02C031
:100680002D9A01C02D988EE00E946901EC018FE047
:100690000E946901C817D90711F42C9A01C02C983F
:1006A0008CE191E00E9480018EE00E9469010E942D
:1006B000920182E291E00E9480018FE00E94690134
:1006C0000E9492010E945F01CFCFE1E3F1E013822B
:1006D000128288EE93E0A0E0B0E084839583A68345
:1006E000B78384E091E09183808385EC90E09587E7
:1006F000848784EC90E09787868780EC90E0918BEC
:10070000808B81EC90E0938B828B82EC90E0958BD8
:10071000848B86EC90E0978B868B118E128E138ED5
:10072000148E0895A1E21A2EAA1BBB1BFD010DC059
:10073000AA1FBB1FEE1FFF1FA217B307E407F50791
:1007400020F0A21BB30BE40BF50B661F771F881F6D
:10075000991F1A9469F760957095809590959B0103
:10076000AC01BD01CF010895EE0FFF1F0590F4917C
:10077000E02D099481E090E0F8940C94BF03F89484
:02078000FFCFA9
:1007820000000000F6005F008E003D01BF009D00EA
:10079200B1000D0A0041434F203A20004130203A77
:0807A20020004131203A200043
:00000001FF
